:020000040800F2
:100000006806002089010008990400088B03000895
:1000100095040008430200080D06000800000000D7
:10002000000000000000000000000000BD04000807
:1000300047020008000000009B040008A905000812
:10004000A3010008A3010008A3010008A301000800
:10005000A3010008A3010008A3010008A3010008F0
:10006000A3010008A3010008A3010008A3010008E0
:10007000A3010008A3010008A3010008A3010008D0
:10008000A3010008A3010008A3010008A3010008C0
:10009000A3010008A3010008A3010008A3010008B0
:1000A000A3010008A3010008A3010008A3010008A0
:1000B000A3010008A301000800000000A30100083C
:1000C000A30100080000000000000000A3010008D8
:1000D00000000000A3010008A301000800000000C8
:1000E000A3010008A3010008A301000800F002F822
:1000F00000F03AF80AA090E8000C82448344AAF188
:100100000107DA4501D100F02FF8AFF2090EBAE885
:100110000F0013F0010F18BFFB1A43F0010318473B
:100120004005000060050000103A24BF78C878C17F
:10013000FAD8520724BF30C830C144BF04680C60ED
:10014000704700000023002400250026103A28BF35
:1001500078C1FBD8520728BF30C148BF0B60704739
:100160001FB51FBD10B510BD00F031F81146FFF7E7
:10017000F7FF00F05DFA00F04FF803B4FFF7F2FF6D
:1001800003BC00F057F800000948804709480047C1
:10019000FEE7FEE7FEE7FEE7FEE7FEE7FEE7FEE737
:1001A000FEE7FEE704480549054A064B7047000094
:1001B000AD050008ED00000868000020680600207A
:1001C000680200206802002070477047704775463B
:1001D00000F02CF8AE4605006946534620F00700B3
:1001E000854618B020B5FFF7DDFFBDE820404FF091
:1001F00000064FF000074FF000084FF0000B21F011
:100200000701AC46ACE8C009ACE8C009ACE8C009DD
:10021000ACE8C0098D46704710B50446AFF30080C6
:100220002046BDE81040FFF7A8BF00000048704717
:100230000400002001491820ABBEFEE726000200A2
:10024000704700BFFEE770472DE9F04102460025E8
:100250000026002000230024002791F803C00CF0A2
:100260000F0591F803C00CF0100CBCF1000F03D087
:1002700091F802C04CEA050591F800C0BCF1000FEE
:1002800031D0146800202BE04FF0010C0CFA00F381
:10029000B1F800C00CEA03069E4220D183004FF063
:1002A0000F0C0CFA03F7BC4305FA03FC4CEA0404F8
:1002B00091F803C0BCF1280F06D14FF0010C0CFAE5
:1002C00000FCC2F814C00AE091F803C0BCF1480F6A
:1002D00005D14FF0010C0CFA00FCC2F810C0401C14
:1002E0000828D1D31460B1F800C0BCF1FF0F34DD91
:1002F000546800202EE000F1080C4FF0010808FAC5
:100300000CF3B1F800C00CEA03069E4221D1830031
:100310004FF00F0C0CFA03F7BC4305FA03FC4CEA50
:10032000040491F803C0BCF1280F05D100F1080CBA
:1003300008FA0CF8C2F8148091F803C0BCF1480F19
:1003400007D100F1080C4FF0010808FA0CF8C2F8C8
:100350001080401C0828CED35460BDE8F0810246CE
:10036000002093680B400BB1012000E00020704793
:1003700002460020D3680B400BB1012000E00020B2
:100380007047416170470161704700BFFEE70000A0
:1003900010B5002402211548FFF7E1FF01280DD117
:1003A0000A2000F035F900BF02211048FFF7D7FFFF
:1003B0000128F9D00A2000F02BF901244FF4006144
:1003C0000A48FFF7CCFF01280ED10A2000F020F9DF
:1003D00000BF4FF400610548FFF7C1FF0128F8D0C6
:1003E0000A2000F015F90224204610BD000C01403F
:1003F00008B50121082000F051F848208DF80300CD
:1004000040F60200ADF8000003208DF802006946B6
:100410000148FFF719FF08BD000C014010B501218C
:100420000648FFF7A5FF20B101210448FFF7A9FF07
:1004300003E001210148FFF7A6FF10BD00080140BD
:1004400010B502210648FFF793FF20B102210448AE
:10045000FFF797FF03E002210148FFF794FF10BD6B
:100460000008014008B50121042000F017F8102011
:100470008DF803000320ADF800008DF802006946F6
:100480000348FFF7E1FE03210148FFF77CFF08BDA9
:100490000008014000BFFEE77047704729B1064AD7
:1004A00092690243044B9A6104E0034A92698243D1
:1004B000014B9A617047000000100240704710B570
:1004C00000F002F810BD00000CB500200190009073
:1004D0003348006840F480303149086000BF30483C
:1004E000006800F4003000900198401C01900098D2
:1004F00018B90198B0F5A06FF1D12948006800F44F
:10050000003010B10120009001E000200090009820
:10051000012843D12348006840F0100021490860B9
:100520000846006820F0030008600846006840F0B4
:10053000020008601A484068194948600846406847
:1005400048600846406840F480604860084640685B
:1005500020F47C1048600846406840F4E810486089
:100560000846006840F08070086000BF0C480068D2
:1005700000F000700028F9D00948406820F003001E
:10058000074948600846406840F00200486000BFE4
:100590000348406800F00C000828F9D10CBD0000A9
:1005A00000100240002002407047000010B51348C0
:1005B000006840F001001149086008464068104991
:1005C00008400E494860084600680E4908400B493B
:1005D00008600846006820F48020086008464068EB
:1005E00020F4FE0048604FF41F008860FFF767FFAB
:1005F0004FF000600449086010BD00000010024088
:100600000000FFF8FFFFF6FE08ED00E000BFFEE788
:10061000002107E042F6E06100BF0A1EA1F10103DC
:1006200099B2FAD1021EA0F1010398B2F2D170473B
:10063000FFF718FFFFF7DCFE0FE0FFF7A9FE074901
:10064000087008460078012801D1FFF7E7FE03484B
:100650000078022801D1FFF7F3FEEEE7000000204A
:1006600080060008000000200400000028010008A7
:10067000840600080400002064060000440100080D
:040680000000000076
:04000005080000ED02
:00000001FF
